:040000003BEF01F0E1
:100008004782FACF31F0FBCF32F0E9CF33F0EACFB5
:1000180034F0E1CF35F0E2CF36F0D9CF37F0DACF90
:1000280038F0F3CF39F0F4CF3AF0F6CF3BF0F7CF12
:100038003CF0F8CF3DF0F5CF3EF09EBA9DAA14D023
:10004800530EAE18D8A409D0000E426E000E416EB1
:10005800000E0001B86F010E04D0000E0001B86F49
:10006800000EB76F9E9AE5D0F2B4F2AA4BD0000109
:10007800B54BB62B0001C0050001C111D8A40FD0A3
:10008800030E0001B5152F6E000E0001B615306E77
:100098002F503010D8A403D0CDEC02F02DD0020E92
:1000A8000001C0190001C111D8A411D0B5C00FF0CA
:1000B800B6C010F0000E126E030E116E81EC0DF03A
:1000C8000F501010D8A403D0CDEC02F015D0030EB9
:1000D8000001C0190001C111D8A406D00001B5B1B2
:1000E80003D0CDEC02F008D0040E0001C0190001C5
:1000F800C111D8B4CDEC02F0C20ED76EF60ED66E92
:10010800F29497D09EB29DA294D0454A462A000107
:10011800C0050001C111D8A411D045C00FF046C0D8
:1001280010F0070E126ED00E116E81EC0DF00F500C
:100138001010D8A403D057EC0EF046D0020E0001E0
:10014800C0190001C111D8A411D045C00FF046C094
:1001580010F0050E126EDC0E116E81EC0DF00F50D2
:100168001010D8A403D057EC0EF02ED0030E0001C7
:10017800C0190001C111D8A411D045C00FF046C064
:1001880010F0030E126EE80E116E81EC0DF00F5098
:100198001010D8A403D057EC0EF016D0040E0001AE
:1001A800C0190001C111D8A40FD045C00FF046C036
:1001B80010F0010E126EF40E116E81EC0DF00F505E
:1001C8001010D8B457EC0EF00001B7050001B811B3
:1001D800D8A412D0414A422AB80E41180DE10B0E9C
:1001E8004218D8A409D0000E0001B86F000EB76FEE
:1001F800000E426E000E416E434A442A43B018D0A6
:10020800000E446E000E436E000E0001B46F000E27
:10021800B36F000E0001B26F000EB16F000E000147
:10022800B06F000EAF6F000E0001AE6F000EAD6F25
:100238009E923EC0F5FF3DC0F8FF3CC0F7FF3BC0B3
:10024800F6FF3AC0F4FF39C0F3FF38C0DAFF37C011
:10025800D9FF36C0E2FF35C0E1FF34C0EAFF33C042
:10026800E9FF32C0FBFF31C0FAFF47921100E6EF09
:100278000EF0700E0001786F000E0001796F74D1D6
:10028800250E00018019D8B40AD06CC0D9FF6DC002
:10029800DAFF80C0DFFF00016C4B6D2B65D1000ECB
:1002A80000017F6F000E7E6F000E00017D6F05D08C
:1002B80000017D8500016E4B6F2B6EC0F6FF6FC08D
:1002C800F7FF0800F550300AD8B4F2D76EC0F6FF31
:1002D8006FC0F7FF0800F55021EC10F0D8A040D00F
:1002E800000E00017F6F000E7E6F7EC060F07FC041
:1002F80061F0000E0001636F0A0E626FEDEC0FF003
:1003080060C07EF061C07FF0D00E0001746FFF0EF8
:100318000001756F6EC0F6FF6FC0F7FF0800F5505B
:100328000001766F776B0001745100017627000198
:100338007551000177230001765100017E270001E5
:10034800775100017F2300016E4B6F2B6EC0F6FFC3
:100358006FC0F7FF0800F55021EC10F0D8B0C5D7F2
:100368006EC0F6FF6FC0F7FF00016E4B6F2B0800E1
:10037800F5CF80F000018051000AD8B403D1640A97
:10038800D8B403D00D0AD8A4EFD078C0D9FF79C06B
:10039800DAFFDECF7BF0DDCF7CF0020E000178279C
:1003A800000E792300017CAF08D0030E00017D13F5
:1003B80000017B6D7C1FD8B07C2B010E0001806F83
:1003C800050E00018019D8B416D000018051020D25
:1003D800990EF324F66E7F0EF420F76E0900F5509F
:1003E80000017B5D0900F55000017C59D8A003D0BD
:1003F8000001802BE5D700017E5100017F11D8B4A0
:100408000BD07DC074F0030E00017417D8B404D06B
:1004180000017E07D8A07F07800E000180BF7F0EF5
:100428000001746F00017E510001805D00017F5161
:10043800800A00017459D8B00BD000018051000126
:100448007E5F000E000180BFFF0E00017F5B05D0BC
:10045800000E00017F6F000E7E6F00017DA524D085
:100468007DC074F0030E00017417D8B409D06CC0B5
:10047800D9FF6DC0DAFF2D0EDF6E00016C4B6D2BBE
:1004880000017E5100017F11D8B437D06CC0D9FF6C
:100498006DC0DAFF300EDF6E00016C4B6D2B000172
:1004A8007E07D8A07F07ECD700017E5100017F119D
:1004B800D8B413D06CC0D9FF6DC0DAFF200EDF6E40
:1004C80000016C4B6D2B00017E07D8A07F0700014F
:1004D8007E5100017F11D8A4EDD77DC074F0030EC2
:1004E80000017417D8B409D06CC0D9FF6DC0DAFF09
:1004F8002D0EDF6E00016C4B6D2B80C07AF02ED074
:1005080000017A51020D990EF324F66E7F0EF42045
:10051800F76E0900F5CF62F00A00F5CF63F07BC0F3
:1005280060F07CC061F00AEC0DF060C067F061C05B
:1005380068F0000E00016A6F0A0E696F26EC0EF073
:1005480000016751300F0001806F6CC0D9FF6DC08A
:10055800DAFF80C0DFFF00016C4B6D2B00017A07CA
:1005680000017A29D8A4CCD76EC0F6FF6FC0F7FF78
:1005780000016E4B6F2B0800F5CF80F00001805111
:10058800D8A47ED66CC0D9FF6DC0DAFF000EDF6E2E
:100598001200000E286E000E276E28BE08D02850C4
:1005A80005E1630E275CD8B0120001D0120027C005
:1005B80001F028C002F0000E046E060E036E5CEC1B
:1005C80010F0040E0126000E0222C20E0124D96E7C
:1005D800000E0220DA6EDE50DE10D8B44DD1000EC7
:1005E8001C6E000E1B6E000E1E6E010E1D6E000EA0
:1005F800206E020E1F6E000E226E030E216E000E7C
:10060800266E040E256E13EC0FF00DC00FF00EC011
:1006180010F0FF0E2524116EFF0E2620126E81ECBD
:100628000DF00FC023F010C024F027C001F028C03F
:1006380002F0000E046E060E036E5CEC10F0C20EA3
:100648000124D96E000E0220DA6E10EE29F0050E94
:10065800DBCFE3FFE806FCE228D02B06D8A02C0667
:1006680020D0D8902534D96E2634DA6E1B0ED926C0
:10067800000EDA22D8902334E16E2434E26E1B0E89
:10068800E126000EE222DECFE6FFDDCFE5FF2BD02C
:10069800294A2A2A06D02B4A2C2A03D02906D8A070
:1006A8002A062506D8A02606DCD7D8902334D96E8A
:1006B8002434DA6E1B0ED926000EDA22DECF15F0AE
:1006C800DDCF16F01650000AD8A40DD01550000A38
:1006D800D8B4C3D7010AD8B4DBD7030AD8B4DBD758
:1006E800010AD8B4DBD726BE46D0265003E125043C
:1006F800D8A041D020EE29F000EE01F0050EDBCFA6
:10070800EBFFE806FCE28FEC0FF001500210D8B4C2
:100718007AD729C001F02AC002F0000E046E320E0A
:10072800036E5CEC10F0140E156E030E166E01507D
:10073800152602501622D8902B34D96E2C34DA6E36
:100748001550D9261650DA22DE2802E1DE28D8A470
:100758005AD70001A75129180EE10001A8512A18FB
:10076800D8A409D00001A9512B1805E10001AA510C
:100778002C18D8B448D727C001F028C002F0000EC2
:10078800046E060E036E5CEC10F0C20E0124D96EE6
:10079800000E0220DA6EDECF19F0DDCF1AF027C086
:1007A80001F028C002F0000E046E060E036E5CEC29
:1007B80010F0020E0126000E0222C20E0124D96E8C
:1007C800000E0220DA6EDECF15F0DDCF16F0D890DD
:1007D8001536163619C001F01AC002F0000E046E64
:1007E800320E036E5CEC10F0140E176E030E186ECA
:1007F800015017260250182215501724D96E16508A
:100808001820DA6EFF0EDE6EFF0EDD6E29C001F0D5
:100818002AC002F0000E046E320E036E5CEC10F07B
:10082800140E156E030E166E015015260250162270
:10083800D8902B34D96E2C34DA6E1550D926165030
:10084800DA2227C0DEFF28C0DDFF20EE29F027C00E
:1008580001F028C002F0000E046E060E036E5CEC78
:1008680010F0C20E0124E16E000E0220E26E050EA9
:10087800DBCFE3FFE806FCE2274A282A28BE97D602
:10088800285001E18ED612009268010E0F01386FD0
:100898009468000E0F013A6F010EC26E800EC16E91
:1008A800110EC06EAC84B886100EAF6EAC98D09E98
:1008B800F28CF28E9E9A9D8A948EAB9CAB88AB8EFE
:1008C800D59AD59CD596D584D592D580C20ED76EAB
:1008D800F60ED66E9F82BA82BA90BA8CBA9ABA9835
:1008E800BA867C0EBB6E000E0001BA6F000EB96F9F
:1008F800000E0001C16F010EC06F000E0001B86F3D
:10090800000EB76F000E0001856F000E846F0001A6
:1009180085BF08D00001855147E1080E0001845DBC
:10092800D8B042D0000E0001876F000E866F00011C
:1009380087BF08D00001875133E1190E0001865D99
:10094800D8B02ED084C060F085C061F0000E0001E0
:10095800636F320E626FEDEC0FF0140E00017A6FC8
:10096800030E00017B6F0001605100017A2700012E
:10097800615100017B23D89000018635D96E0001B2
:100988008735DA6E00017A51D92600017B51DA22C7
:10099800FF0EDE6EFF0EDD6E0001864B872BC7D77C
:1009A8000001844B852BB3D76FEC10F0070E0001C4
:1009B8006B6F000E00016C6F7F0E00016D6F000EF3
:1009C800C4EC0CF0000E36EC10F0C282C2B2FED7B6
:1009D800C3CF7AF0060E00017B6F0001D8907A33FE
:1009E80000017B2FFAD7C45000017C6F7D6B00019A
:1009F800D8907C377D370001D8907C377D3700014F
:100A08007A5100017C250001606F0001000E000191
:100A18007D210001616F80EC10F088EC0EF06CC055
:100A28006EF06DC06FF0000E0001716F060E706FF2
:100A380088EC0BF06EC080F06FC081F00001804B35
:100A4800812B88EC0EF06CC06EF06DC06FF0000E5C
:100A58000001716F190E706F88EC0BF06EC07EF09C
:100A68006FC07FF0770E0001BB6F80C0A7F081C018
:100A7800A8F07EC0A9F07FC0AAF0000E0001AC6FFC
:100A8800010EAB6F000E0001836F000E826F000134
:100A980083BF08D00001835111E1030E0001825D7C
:100AA800D8B00CD0F0EC0DF00001824B832B000184
:100AB80083BFF8D70001835101E1EFD7F294F28A9E
:100AC800D58E9E929D82BA84120066C070F067C06F
:100AD80071F068C072F069C073F0000E0001756FA4
:100AE800010E746F20EE70F000EE60F0050EDBCFA3
:100AF800EBFFE806FCE2B7EC0EF0000160510001E4
:100B08006111D8A406D0000E0001676F000E666F51
:100B180012000001A7510001701917E10001A85146
:100B280000017119D8A411D00001A951000172194E
:100B38000CE10001AA5100017319D8A406D0000ED7
:100B48000001676F000E666F120070C060F071C020
:100B580061F0000E0001636F320E626FEDEC0FF072
:100B6800140E00016A6F030E00016B6F00016051E3
:100B780000016A270001615100016B23D890000130
:100B88007235D96E00017335DA6E00016A51D926C3
:100B980000016B51DA22DE2803E1DE28D8B406D042
:100BA800000E0001676F000E666F1200000E000154
:100BB8006F6F000E6E6F00016FBF08D000016F519C
:100BC80070E1630E00016E5DD8B06BD06EC060F04E
:100BD8006FC061F0000E0001636F060E626FEDECEE
:100BE8000FF0040E00016027000E00016123C20E01
:100BF80000016025D96E000E00016121DA6EDE5019
:100C0800DE10D8A44AD020EE70F06EC060F06FC03D
:100C180061F0000E0001636F060E626FEDEC0FF0DD
:100C2800C20E00016025E16E000E00016121E26E36
:100C3800050EDBCFE3FFE806FCE270C060F071C090
:100C480061F0000E0001636F320E626FEDEC0FF081
:100C5800140E00016A6F030E00016B6F00016051F2
:100C680000016A270001615100016B23D89000013F
:100C78007235D96E00017335DA6E00016A51D926D2
:100C880000016B51DA226EC0DEFF6FC0DDFF000E7F
:100C98000001676F010E666F120000016E4B6F2B2B
:100CA8008AD7000E0001676F000E666F1200C282BD
:100CB80093D0C1EC08F01CEC0AF082A015D000011A
:100CC800B3510001B411D8A40FD01A0E0001A16FBE
:100CD800F80EE82EFED7A12FFCD700F082A048D04E
:100CE800640E6FEC09F044D082A215D00001B15116
:100CF8000001B211D8A40FD01A0E0001A16FF80E8E
:100D0800E82EFED7A12FFCD700F082A231D0730EB7
:100D18006FEC09F02DD082A415D00001AF5100016D
:100D2800B011D8A40FD01A0E0001A16FF80EE82E4A
:100D3800FED7A12FFCD700F082A41AD0770E6FEC53
:100D480009F016D082A614D00001AD510001AE11F1
:100D5800D8A40ED01A0E0001A16FF80EE82EFED707
:100D6800A12FFCD700F082A603D0610E6FEC09F02A
:100D780082A004D00001A16BA12B02D00001A16BBD
:100D88000001A1510001B36FB46B82A204D000012D
:100D9800A16BA12B02D00001A16B0001A1510001A0
:100DA800B16FB26B82A404D00001A16BA12B02D059
:100DB8000001A16B0001A1510001AF6FB06B82A6C9
:100DC80004D00001A16BA12B02D00001A16B00018E
:100DD800A1510001AD6FAE6BC2B26BD7C3CFA1F00A
:100DE800060E0001A26F0001D890A1330001A22FC6
:100DF800FAD7C4500001A36FA46B0001D890A337A1
:100E0800A4370001D890A337A4370001A1510001ED
:100E1800A3250001A56F0001000E0001A421000117
:100E2800A66F0001A6BF04D00001A605D8B005D062
:100E3800000E0001C16F010E1ED00001A6BF05D033
:100E4800020E0001A65DD8B005D0000E0001C16FEA
:100E5800020E11D00001A6BF05D0030E0001A65D49
:100E6800D8B005D0000E0001C16F030E04D0000EEB
:100E78000001C16F040EC06F0D0E0001A16FFB0EC3
:100E8800E82EFED7A12FFCD700D0120007C011F022
:100E980008C012F009C013F00AC014F0000E166E54
:100EA800010E156E20EE11F000EE01F0050EDBCFFD
:100EB800EBFFE806FCE28FEC0FF001500210D8A41B
:100EC80005D0000E086E000E076E12000001A75133
:100ED800111813E10001A8511218D8A40ED000016E
:100EE800A95113180AE10001AA511418D8A405D071
:100EF800000E086E000E076E120011C001F012C03D
:100F080002F0000E046E320E036E5CEC10F0140E4C
:100F18000B6E030E0C6E01500B2602500C22D8905B
:100F28001334D96E1434DA6E0B50D9260C50DA22E9
:100F3800DE2803E1DE28D8B405D0000E086E000EC6
:100F4800076E1200000E106E000E0F6E10BE06D057
:100F580010505AE1630E0F5CD8B056D00FC001F0A4
:100F680010C002F0000E046E060E036E5CEC10F06A
:100F7800040E0126000E0222C20E0124D96E000EB4
:100F88000220DA6EDE50DE10D8A43BD020EE11F03D
:100F98000FC001F010C002F0000E046E060E036EC2
:100FA8005CEC10F0C20E0124E16E000E0220E26E2D
:100FB800050EDBCFE3FFE806FCE211C001F012C02A
:100FC80002F0000E046E320E036E5CEC10F0140E8C
:100FD8000B6E030E0C6E01500B2602500C22D8909B
:100FE8001334D96E1434DA6E0B50D9260C50DA2229
:100FF8000FC0DEFF10C0DDFF000E086E010E076E89
:1010080012000F4A102AA2D7000E086E000E076EB3
:101018001200A7C060F0A8C061F0000E0001636F65
:10102800320E626FEDEC0FF0140E00016D6F030EBF
:1010380000016E6F0001605100016D2700016151D0
:1010480000016E23D8900001A935D96E0001AA3598
:10105800DA6E00016D51D92600016E51DA22FF0EB9
:10106800DE6EFF0EDD6E20EE66F010EEA7F0050EC8
:10107800DBCFE3FFE806FCE2A7C060F0A8C061F0A0
:10108800000E0001636F320E626FEDEC0FF0140E6C
:1010980000016D6F030E00016E6F000160510001C9
:1010A8006D270001615100016E23D8900001A93518
:1010B800D96E0001AA35DA6E00016D51D9260001FA
:1010C8006E51DA22DE2803E1DE28D8B453D0A7C057
:1010D80060F0A8C061F0000E0001636F320E626F0D
:1010E800EDEC0FF0140E00016D6F030E00016E6F32
:1010F8000001605100016D270001615100016E235C
:10110800D8900001A935D96E0001AA35DA6E000120
:101118006D51D92600016E51DA22DECF71F0DDCF94
:1011280072F071C060F072C061F0000E0001636F70
:10113800060E626FEDEC0FF0040E00016027000E42
:1011480000016123C20E00016025D96E000E000166
:101158006121DA6E000EDE6E000EDD6E0001B94B05
:10116800BA2B0001B7510001B811D8B403D000015F
:10117800B94BBA2B6CC0BBF012000001C0050001CE
:10118800C111D8A40DD0000E0001996FE60E000120
:101198009A6F7F0E00019B6F000E2AEC0CF03BD07B
:1011A800020E0001C0190001C111D8A40DD0000E13
:1011B8000001996FEB0E00019A6F7F0E00019B6F83
:1011C800000E2AEC0CF027D0030E0001C019000114
:1011D800C111D8A40DD0000E0001996FF00E0001C6
:1011E8009A6F7F0E00019B6F000E2AEC0CF013D053
:1011F800040E0001C0190001C111D8A40CD0000EC2
:101208000001996FF50E00019A6F7F0E00019B6F28
:10121800000E2AEC0CF00001B7510001B811D8B447
:101228000DD0040E0001996FFA0E00019A6F7F0E1F
:1012380000019B6F000E2AEC0CF00CD0040E00018C
:10124800996FB40E00019A6F7F0E00019B6F000E1C
:101258002AEC0CF00A0E0001996FBAEC0AF081C072
:101268009AF082C09BF0000E2AEC0CF0160E0001DA
:10127800996FFC0E00019A6F7F0E00019B6F000EA4
:101288002AEC0CF0170E0001996FB9C081F0BAC0B2
:1012980082F008EC10F081C09AF082C09BF0000E3A
:1012A8002AEC0CF0B5C060F0B6C061F0000E000189
:1012B800636F020E626F29EC0BF0000161BF120030
:1012C8000001615105E1B40E0001605DD8A0120073
:1012D800D9EC0BF012000001736F20EEA7F010EEAE
:1012E80074F0050EDBCFE3FFE806FCE2770E0001A1
:1012F8007319D8A424D000017407D8A0750720EE6C
:1013080074F000EE60F0050EDBCFEBFFE806FCE2C0
:10131800B7EC0EF00001605100016111D8B4120061
:1013280020EE74F000EE66F0050EDBCFEBFFE8066A
:10133800FCE2770E00016C6F0DEC08F01200610EF4
:1013480000017319D8A424D000017607D8A0770724
:1013580020EE74F000EE60F0050EDBCFEBFFE80640
:10136800FCE2B7EC0EF00001605100016111D8B445
:10137800120020EE74F000EE66F0050EDBCFEBFFF6
:10138800E806FCE2610E00016C6F0DEC08F012003B
:10139800730E00017319D8A423D00001744B752B68
:1013A80020EE74F000EE60F0050EDBCFEBFFE806F0
:1013B800FCE2B7EC0EF00001605100016111D8B4F5
:1013C800120020EE74F000EE66F0050EDBCFEBFFA6
:1013D800E806FCE2730E00016C6F0DEC08F01200D9
:1013E800640E00017319D8A412000001764B772B04
:1013F80020EE74F000EE60F0050EDBCFEBFFE806A0
:10140800FCE2B7EC0EF00001605100016111D8B4A4
:10141800120020EE74F000EE66F0050EDBCFEBFF55
:10142800E806FCE2640E00016C6F0DEC08F0120097
:10143800000E0001796F010E786F000179BF0AD0A4
:101448000001795106E1080E0001785DD8B012005C
:1014580001D01200000E00017B6F000E7A6F0001B0
:101468007BBF08D000017B5176E1190E00017A5D3F
:10147800D8B071D0000178510001A7191AE1000114
:1014880079510001A819D8A414D000017A5100019B
:10149800A9190FE100017B510001AA19D8A409D0AC
:1014A800A9C06BF0BBC06CF00001A7517BEC0CF03D
:1014B8004ED078C060F079C061F0000E0001636F13
:1014C800320E626FEDEC0FF0140E0001746F030E14
:1014D8000001756F0001605100017427000161511E
:1014E80000017523D89000017A35D96E00017B354B
:1014F800DA6E00017451D92600017551DA22DE280E
:101508000DE1DE28D8A40AD07AC06BF02E0E0001B7
:101518006C6F000178517BEC0CF019D00001B751C9
:101528000001B811D8B40AD07AC06BF0630E00017C
:101538006C6F000178517BEC0CF009D07AC06BF02D
:10154800650E00016C6F000178517BEC0CF0000116
:101558007A4B7B2B84D70001784B792B000179BF1C
:1015680079D70001795101E16ED71200000E000110
:10157800636F020E626FB5C060F0B6C061F029EC0F
:101588000BF00001601F0001611F0001604B612B1F
:10159800B40E000160250001976F000E0001612163
:1015A8000001986F97C060F098C061F0000E0001CC
:1015B800636F3C0E626F29EC0BF060C093F061C062
:1015C80094F0000E0001636F020E626FB5C060F008
:1015D800B6C061F029EC0BF00001601F0001611F2B
:1015E8000001604B612BB40E0001602500016E6F95
:1015F800000E0001612100016F6F000E0001716F84
:101608003C0E706F88EC0BF06EC095F06FC096F0D2
:10161800830E00016C6F000E00016D6FDC0E00017F
:101628006E6F7F0E00016F6F93C070F094C071F001
:1016380095C072F096C073F03DEC01F0830E000186
:10164800816F000E0001826F1200000E0001656FAD
:10165800000163AF08D00001626D631FD8B0632B2F
:10166800010E0001656F000161AF08D00001606DD7
:10167800611FD8B0612B010E0001651B000E00012F
:10168800676F000E666F0001625100016311D8B4E4
:101698002CD0010E0001646F06D00001D89062378B
:1016A80063370001642B000163AFF7D70001D890BE
:1016B80066376737000162510001605D00016351C0
:1016C80000016159D8A00AD0000162510001605F91
:1016D800000163510001615B000166810001D8903F
:1016E800633362330001642FE1D7000165510001C3
:1016F800D8B405D00001666D671FD8B0672B66C0E7
:1017080060F067C061F01200000E0001736F000105
:101718006FAF08D000016E6D6F1FD8B06F2B010E30
:101728000001736F000171AF05D00001706D711F6A
:10173800D8B0712B0001705100017111D8B426D0B6
:10174800010E0001726F06D00001D8907037713712
:101758000001722B000171AFF7D700017051000131
:101768006E5D0001715100016F59D8A008D00001C9
:10177800705100016E5F0001715100016F5B000143
:10178800D890713370330001722FE7D7000173517D
:101798000001D8B405D000016E6D6F1FD8B06F2B53
:1017A8006EC06EF06FC06FF01200F29EF29EF29C57
:1017B800F29C040E0001996FB60E00019A6F7F0E1D
:1017C80000019B6F030E2AEC0CF0040E0001996FC8
:1017D800C90E00019A6F7F0E00019B6F040E2AEC60
:1017E8000CF0060E0001A06F130E00019F6FAD0EE6
:1017F800E82EFED79F2FFCD7A02FFAD700D0040ED3
:101808000001996FA30E00019A6F7F0E00019B6F74
:10181800030E2AEC0CF0040E0001996FA30E0001D0
:101828009A6F7F0E00019B6F040E2AEC0CF0060ED7
:101838000001A06F130E00019F6FAD0EE82EFED7BA
:101848009F2FFCD7A02FFAD700D0B3D700019C6FE9
:10185800000E00019E6F000E9D6F22D0000199516D
:1018680000019D2500016B6F9AC0F6FF9BC0F7FF32
:10187800F86A050EF76403D00800F55005D0F6CFD6
:10188800E9FFF7CFEAFFEF5000016C6F00019C51B0
:101898007BEC0CF000019A4B9B2B00019D4B9E2B7F
:1018A8009AC0F6FF9BC0F7FFF86A050EF76403D0ED
:1018B8000800F55005D0F6CFE9FFF7CFEAFFEF5063
:1018C8000A0AD8B412009AC0F6FF9BC0F7FFF86A5C
:1018D800050EF76403D00800F55005D0F6CFE9FFF0
:1018E800F7CFEAFFEF500009D8B41200B7D70001CC
:1018F8006F6FE00E00016C250001606F0001616BE5
:10190800FF0E6123000E0001636F050E626FEDECA0
:101918000FF060C070F061C071F000016B51050DEF
:10192800F3CF6BF0000E0001736F000E726F0001B1
:1019380073BF08D00001735122E1050E0001725DEA
:10194800D8B01200A50E00017025F66E7D0E71212B
:10195800F76E0800F55000016D6F6E6B6BC065F097
:101968006DC066F000016F51B9EC0DF000016B2BF2
:101978000001704B712B0001724B732BD8D71200EA
:101988000001716F71C072F00001736B29D06CC0D7
:1019980074F00001756B0CD074C065F0000E000186
:1019A800666F00017251B9EC0DF00001744B752B94
:1019B80000016D5100016E6F6F6B000174510001E1
:1019C8006E5D00016F51800A0001706F0001755152
:1019D800800A00017059D8B0DFD70001724B732B11
:1019E80000016B5100016E6F6F6B000172510001B5
:1019F8006E5D00016F51800A0001706F0001735124
:101A0800800A00017059D8A01200C1D7000E000149
:101A1800656F000E646F0001625100016311D8B454
:101A28002CD0010E0001666F06D00001D8906237F5
:101A380063370001662B000163AFF7D70001D89028
:101A480064376537000162510001605D0001635130
:101A580000016159D8A00AD0000162510001605FFD
:101A6800000163510001615B000164810001D890AD
:101A7800633362330001662FE1D764C060F065C04C
:101A880061F01200000E0001686F000E696F000E11
:101A98006A6F000E6B6F000160A110D000016451E5
:101AA80000016827000165510001692300016651A2
:101AB80000016A230001675100016B230001D890DF
:101AC80064376537663767370001D8906333623308
:101AD800613360330001605100016111000162113E
:101AE80000016311D8A4D7D768C060F069C061F05D
:101AF8006AC062F06BC063F01200000E146E10AE84
:101B080006D00F6C101ED8B0102A010E146E12AE3B
:101B180004D0116C121ED8B0122A11501210D8B469
:101B280018D0010E136E04D0D89011361236132A2D
:101B380012AEFAD711500F5C12501058D8A004D02A
:101B480011500F5E1250105AD89012321132132EC3
:101B5800F1D71450D8B404D00F6C101ED8B0102A86
:101B68000FC00FF010C010F012000001676F400E98
:101B78000001656105D0000E0001696F010E04D0F7
:101B8800000E0001696F020E686F68C06AF00001FC
:101B9800675149EC10F0000165516AEC0FF0000143
:101BA8006A51D1EC0FF0000E936E00016A05D8B4AB
:101BB8008190020E00016A19D8B4819281968184BD
:101BC80000F0818800F066C083FF000E956E00F07B
:101BD800819881808182120088EC0EF06CC06EF0D2
:101BE8006DC06FF0000E0001716F070E706F88EC0A
:101BF8000BF06EC078F06FC079F00001784B792B4C
:101C080088EC0EF06CC06EF06DC06FF0000E000135
:101C1800716F190E706F88EC0BF06EC076F06FC0A4
:101C280077F078C066F079C067F076C068F077C062
:101C380069F069EC05F00001665100016711D8A44C
:101C48001200CAD70001695100016A11D8B426D020
:101C5800010E00016B6F06D00001D89069376A3712
:101C680000016B2B00016AAFF7D700016951000131
:101C7800675D00016A5100016859D8A008D00001C9
:101C880069510001675F00016A510001685B00014A
:101C9800D8906A33693300016B2FE7D767C067F0C4
:101CA80068C068F0120013EC0FF00DC00FF00EC002
:101CB80010F0000E126E070E116E81EC0DF00FC0C1
:101CC80019F010C01AF0194A1A2A13EC0FF00DC0B7
:101CD8000FF00EC010F0000E126E190E116E81EC8E
:101CE8000DF00FC017F010C018F019C007F01AC097
:101CF80008F017C009F018C00AF04AEC07F00750BE
:101D08000810D8A41200CFD7BCC060F0BDC061F0E5
:101D1800BEC062F0BFC063F06D0E0001646F4E0E6E
:101D2800656FC60E666F410E676F46EC0DF060C0BA
:101D3800BCF061C0BDF062C0BEF063C0BFF0390E38
:101D48000001BC27300EBD23000EBE23000EBF23AA
:101D5800FF0E0001BE1500016C6F7F0E0001BF155C
:101D680000016D6F1200000161BF26D000016151B2
:101D780004E100016005D8A01FD0000161BF08D0B0
:101D88000001615119E1080E0001605DD8B014D05E
:101D9800000163BF11D0000163BF08D00001635187
:101DA8000BE1190E0001625DD8B006D0000E0001EB
:101DB800616F010E606F1200000E0001616F000E6E
:101DC800606F12001A0EF66E210EF76E000EF86E96
:101DD80000EEBCF010EE04F00900F5CFEEFFE55080
:101DE800E150FAE100EEC2F013EEB0F0EE6AE55011
:101DF800E150FCE1E250FAE100EEA7F0150EEE6AC0
:101E0800E806FDE100EE3FF0080EEE6AE806FDE1A7
:101E180047904792000EF86E000188EF10F0BCC0A2
:101E280001F0BDC002F0BEC003F0BFC004F06D0EEB
:101E3800056E4E0E066EC60E076E410E086E3FEC1E
:101E48000FF001C0BCF002C0BDF003C0BEF004C07A
:101E5800BFF0390E0001BC27300EBD23000EBE2393
:101E6800000EBF23FF0E0001BE150D6E7F0E000190
:101E7800BF150E6E1200000E096E000E0A6E000EDF
:101E88000B6E000E0C6E01A008D0055009260650F6
:101E98000A2207500B2208500C22D8900536063625
:101EA80007360836D8900432033202320132015024
:101EB800021003100410D8A4E6D709C001F00AC024
:101EC80002F00BC003F00CC004F012000001646FB4
:101ED800400E000164610FD0010E0001626F000125
:101EE80064514009B2EC0FF0020E0001626F400E1F
:101EF800B2EC0FF01200010E0001626F7F0EB2EC1F
:101F08000FF0020E0001626F00016451C00F40091A
:101F1800B2EC0FF0120002BE1CD0025003E1010423
:101F2800D8A017D002BE06D0025013E1080E015CFB
:101F3800D8B00FD004BE0DD004BE06D0045009E1BD
:101F4800190E035CD8B005D0000E026E010E016EAA
:101F58001200000E026E000E016E12000001636F87
:101F680000016251D1EC0FF0000E936E0001620582
:101F7800D8B48190020E00016219D8B4819281967A
:101F8800819400F0818800F063C083FF000E956E95
:101F980000F081988180818212000001616F95684C
:101FA800000E936E00016105D8B48190020E000105
:101FB8006119D8B481928186819400F0818800F0FB
:101FC80083CF60F08198000160BFF8D7818081825B
:101FD80012000001605100016203F3CF64F0F4CFF6
:101FE80065F00001605100016303F35000016527AB
:101FF8000001615100016203F3500001652764C0CC
:1020080060F065C061F01200830E00016C6F000E75
:1020180000016D6FE10E00016E6F7F0E00016F6FA2
:1020280081C070F082C071F03DEC01F0830E0001B8
:10203800816F000E0001826F12000001626F000EB6
:102048000001616F3A0E0001626107D02F0E000196
:10205800626503D0010E0001616F61C060F000018C
:10206800603112000001646F010E0001626F00010F
:102078006451C009B2EC0FF0020E0001626F00015A
:102088006451C009B2EC0FF012000001646F010E38
:102098000001626F00016451B809B2EC0FF0020E42
:1020A8000001626F00016451B809B2EC0FF0120030
:1020B80001500302F3CF05F0F4CF06F001500402FB
:1020C800F350062602500302F350062605C001F01D
:1020D80006C002F01200818A010E0001626F3F0EF5
:1020E800B2EC0FF0020E0001626F3F0EB2EC0FF07F
:1020F800000E36EC10F0120060C0BCF061C0BDF0FC
:102108000001BE6BBF6B120048EC04F05BEC06F0FC
:06211800FDD701000000EC
:107DA40000000000000000005F0000000700070062
:107DB400147F147F14242A7F2A1223130864623642
:107DC400495522500005030000001C2241000041D7
:107DD400221C00082A1C2A0808083E080800503003
:107DE400000008080808080000000000201008042B
:107DF400023E5149453E00427F400042615149469E
:107E04002141454B311814127F1027454545393C13
:107E14004A49493001710905033649494936064939
:107E240049291E00363600000056360000000814AA
:107E3400224114141414144122140800020151099B
:107E440006324979413EC0F8781C0C0C1C78780045
:107E5400071F1C3830333B1F1F060030B09898981A
:107E6400B8F0F000000F0F191919190F0F0000E0F6
:107E7400E0E0C0C0E0E0C000001F1F001F1F001FA3
:107E84001F0000F0F0B89898B8F0F000000F0F1938
:107E94001919190D0D0000F0F038181838F0F00019
:107EA400000F0F1C18181C0F0F0000F0F00000004A
:107EB40000F0F00000030F1E18181E0F030000004E
:107EC400F8F038181818000000001F1F00020408FA
:107ED4001020000000000004020102044040404061
:107EE40040000102040008141C3E147F4844443836
:107EF4001C3622361C143E1C140800081408000802
:107F04007E0901021C3E7F7F7F41414141417F7FC9
:107F14007F7F7F414141221C7F7F7F3E1C00417F48
:107F240040007C041804787C0804047838444444F1
:107F3400387C14141408081414187C7C08040408ED
:107F4400103C583C10074E7E4E073C4040207C1CA1
:107F54002040201C081E0D1E0844281028440C50E4
:107F640050503C4464544C44000836410000007FA7
:107F74000000004136080008082A1C08081C2A08CA
:107F8400080800AA00080038383800000000000083
:107F9400000000000001000A006400E80310272E1E
:107FA4002E2E2E2E2E2E2E2E2E2E2E2E2E2E2E2EED
:107FB4002E0041424546494A4D4E202051525556C5
:107FC4004D4E595A00434447484B4C4F5020205380
:107FD4005457584F505B5D00253032643A25303297
:107FE40064006768686A006769686A006769696A43
:0B7FF400006769696B00210074000049
:020000040030CA
:0E000000FF021900FFA580FF0FC00FE00F40A8
:00000001FF
